{
  "_format": "hh-sol-artifact-1",
  "contractName": "Factory",
  "sourceName": "contracts/Factory.sol",
  "abi": [
    {
      "inputs": [],
      "stateMutability": "nonpayable",
      "type": "constructor"
    },
    {
      "anonymous": false,
      "inputs": [
        {
          "indexed": false,
          "internalType": "uint256",
          "name": "contractId",
          "type": "uint256"
        },
        {
          "indexed": false,
          "internalType": "address",
          "name": "contractAddress",
          "type": "address"
        },
        {
          "indexed": false,
          "internalType": "address",
          "name": "creatorAddress",
          "type": "address"
        },
        {
          "indexed": false,
          "internalType": "string",
          "name": "title",
          "type": "string"
        },
        {
          "indexed": false,
          "internalType": "string",
          "name": "description",
          "type": "string"
        },
        {
          "indexed": false,
          "internalType": "string[]",
          "name": "links",
          "type": "string[]"
        },
        {
          "indexed": false,
          "internalType": "string",
          "name": "imageHash",
          "type": "string"
        },
        {
          "indexed": false,
          "internalType": "string",
          "name": "associatedCommunity",
          "type": "string"
        },
        {
          "indexed": false,
          "internalType": "uint256",
          "name": "startDate",
          "type": "uint256"
        },
        {
          "indexed": false,
          "internalType": "uint256",
          "name": "endDate",
          "type": "uint256"
        }
      ],
      "name": "NTTContractCreated",
      "type": "event"
    },
    {
      "inputs": [
        {
          "internalType": "string",
          "name": "_title",
          "type": "string"
        },
        {
          "internalType": "string",
          "name": "_description",
          "type": "string"
        },
        {
          "internalType": "string[]",
          "name": "_links",
          "type": "string[]"
        },
        {
          "internalType": "string",
          "name": "_imageHash",
          "type": "string"
        },
        {
          "internalType": "string",
          "name": "_associatedCommunity",
          "type": "string"
        },
        {
          "internalType": "uint256",
          "name": "_startDate",
          "type": "uint256"
        },
        {
          "internalType": "uint256",
          "name": "_endDate",
          "type": "uint256"
        },
        {
          "internalType": "address[]",
          "name": "_list",
          "type": "address[]"
        }
      ],
      "name": "deployNTT",
      "outputs": [
        {
          "internalType": "address",
          "name": "",
          "type": "address"
        }
      ],
      "stateMutability": "nonpayable",
      "type": "function"
    }
  ],
  "bytecode": "0x608060405234801561001057600080fd5b5033600160006101000a81548173ffffffffffffffffffffffffffffffffffffffff021916908373ffffffffffffffffffffffffffffffffffffffff160217905550614824806100616000396000f3fe60806040523480156200001157600080fd5b50600436106200002e5760003560e01c8063de624c331462000033575b600080fd5b6200005160048036038101906200004b9190620003d2565b62000069565b604051620000609190620006fb565b60405180910390f35b6000620000776000620001a1565b6000620000856000620001b7565b90506000338b8b8b8b8b8b8b8930604051620000a190620001c5565b620000b69a9998979695949392919062000718565b604051809103906000f080158015620000d3573d6000803e3d6000fd5b5090508073ffffffffffffffffffffffffffffffffffffffff16637f649783856040518263ffffffff1660e01b8152600401620001119190620007eb565b600060405180830381600087803b1580156200012c57600080fd5b505af115801562000141573d6000803e3d6000fd5b505050507f3be3b7e9160f478462bd0f1d1f27aa7bc3f3710b89df1722dbe2cd41e485068d8282338e8e8e8e8e8e8e604051620001889a999897969594939291906200080f565b60405180910390a1809250505098975050505050505050565b6001816000016000828254019250508190555050565b600081600001549050919050565b613c838062000b6c83390190565b6000620001ea620001e4846200090b565b620008e2565b905080838252602082019050828560208602820111156200020a57600080fd5b60005b858110156200023e57816200022388826200031d565b8452602084019350602083019250506001810190506200020d565b5050509392505050565b60006200025f62000259846200093a565b620008e2565b905080838252602082019050828560208602820111156200027f57600080fd5b60005b85811015620002ce57813567ffffffffffffffff811115620002a357600080fd5b808601620002b289826200038e565b8552602085019450602084019350505060018101905062000282565b5050509392505050565b6000620002ef620002e98462000969565b620008e2565b9050828152602081018484840111156200030857600080fd5b6200031584828562000a7c565b509392505050565b6000813590506200032e8162000b37565b92915050565b600082601f8301126200034657600080fd5b813562000358848260208601620001d3565b91505092915050565b600082601f8301126200037357600080fd5b81356200038584826020860162000248565b91505092915050565b600082601f830112620003a057600080fd5b8135620003b2848260208601620002d8565b91505092915050565b600081359050620003cc8162000b51565b92915050565b600080600080600080600080610100898b031215620003f057600080fd5b600089013567ffffffffffffffff8111156200040b57600080fd5b620004198b828c016200038e565b985050602089013567ffffffffffffffff8111156200043757600080fd5b620004458b828c016200038e565b975050604089013567ffffffffffffffff8111156200046357600080fd5b620004718b828c0162000361565b965050606089013567ffffffffffffffff8111156200048f57600080fd5b6200049d8b828c016200038e565b955050608089013567ffffffffffffffff811115620004bb57600080fd5b620004c98b828c016200038e565b94505060a0620004dc8b828c01620003bb565b93505060c0620004ef8b828c01620003bb565b92505060e089013567ffffffffffffffff8111156200050d57600080fd5b6200051b8b828c0162000334565b9150509295985092959890939650565b60006200053983836200055b565b60208301905092915050565b600062000553838362000668565b905092915050565b620005668162000a3e565b82525050565b620005778162000a3e565b82525050565b60006200058a82620009bf565b620005968185620009fa565b9350620005a3836200099f565b8060005b83811015620005da578151620005be88826200052b565b9750620005cb83620009e0565b925050600181019050620005a7565b5085935050505092915050565b6000620005f482620009ca565b62000600818562000a0b565b9350836020820285016200061485620009af565b8060005b8581101562000656578484038952815162000634858262000545565b94506200064183620009ed565b925060208a0199505060018101905062000618565b50829750879550505050505092915050565b60006200067582620009d5565b62000681818562000a1c565b93506200069381856020860162000a8b565b6200069e8162000b26565b840191505092915050565b6000620006b682620009d5565b620006c2818562000a2d565b9350620006d481856020860162000a8b565b620006df8162000b26565b840191505092915050565b620006f58162000a72565b82525050565b60006020820190506200071260008301846200056c565b92915050565b60006101408201905062000730600083018d6200056c565b818103602083015262000744818c620006a9565b905081810360408301526200075a818b620006a9565b9050818103606083015262000770818a620005e7565b90508181036080830152620007868189620006a9565b905081810360a08301526200079c8188620006a9565b9050620007ad60c0830187620006ea565b620007bc60e0830186620006ea565b620007cc610100830185620006ea565b620007dc6101208301846200056c565b9b9a5050505050505050505050565b600060208201905081810360008301526200080781846200057d565b905092915050565b60006101408201905062000827600083018d620006ea565b62000836602083018c6200056c565b62000845604083018b6200056c565b818103606083015262000859818a620006a9565b905081810360808301526200086f8189620006a9565b905081810360a0830152620008858188620005e7565b905081810360c08301526200089b8187620006a9565b905081810360e0830152620008b18186620006a9565b9050620008c3610100830185620006ea565b620008d3610120830184620006ea565b9b9a5050505050505050505050565b6000620008ee62000901565b9050620008fc828262000ac1565b919050565b6000604051905090565b600067ffffffffffffffff82111562000929576200092862000af7565b5b602082029050602081019050919050565b600067ffffffffffffffff82111562000958576200095762000af7565b5b602082029050602081019050919050565b600067ffffffffffffffff82111562000987576200098662000af7565b5b620009928262000b26565b9050602081019050919050565b6000819050602082019050919050565b6000819050602082019050919050565b600081519050919050565b600081519050919050565b600081519050919050565b6000602082019050919050565b6000602082019050919050565b600082825260208201905092915050565b600082825260208201905092915050565b600082825260208201905092915050565b600082825260208201905092915050565b600062000a4b8262000a52565b9050919050565b600073ffffffffffffffffffffffffffffffffffffffff82169050919050565b6000819050919050565b82818337600083830152505050565b60005b8381101562000aab57808201518184015260208101905062000a8e565b8381111562000abb576000848401525b50505050565b62000acc8262000b26565b810181811067ffffffffffffffff8211171562000aee5762000aed62000af7565b5b80604052505050565b7f4e487b7100000000000000000000000000000000000000000000000000000000600052604160045260246000fd5b6000601f19601f8301169050919050565b62000b428162000a3e565b811462000b4e57600080fd5b50565b62000b5c8162000a72565b811462000b6857600080fd5b5056fe60806040523480156200001157600080fd5b5060405162003c8338038062003c83833981810160405281019062000037919062000457565b89600660010160006101000a81548173ffffffffffffffffffffffffffffffffffffffff021916908373ffffffffffffffffffffffffffffffffffffffff16021790555088600660020190805190602001906200009692919062000175565b508760066003019080519060200190620000b292919062000175565b508660066004019080519060200190620000ce92919062000206565b508560066005019080519060200190620000ea92919062000175565b50846006800190805190602001906200010592919062000175565b5083600660070181905550826006600801819055508160066000018190555080600360006101000a81548173ffffffffffffffffffffffffffffffffffffffff021916908373ffffffffffffffffffffffffffffffffffffffff16021790555050505050505050505050620007d5565b8280546200018390620006c6565b90600052602060002090601f016020900481019282620001a75760008555620001f3565b82601f10620001c257805160ff1916838001178555620001f3565b82800160010185558215620001f3579182015b82811115620001f2578251825591602001919060010190620001d5565b5b5090506200020291906200026d565b5090565b8280548282559060005260206000209081019282156200025a579160200282015b82811115620002595782518290805190602001906200024892919062000175565b509160200191906001019062000227565b5b5090506200026991906200028c565b5090565b5b80821115620002885760008160009055506001016200026e565b5090565b5b80821115620002b05760008181620002a69190620002b4565b506001016200028d565b5090565b508054620002c290620006c6565b6000825580601f10620002d65750620002f7565b601f016020900490600052602060002090810190620002f691906200026d565b5b50565b6000620003116200030b84620005ed565b620005c4565b905080838252602082019050828560208602820111156200033157600080fd5b60005b858110156200038057815167ffffffffffffffff8111156200035557600080fd5b80860162000364898262000413565b8552602085019450602084019350505060018101905062000334565b5050509392505050565b6000620003a16200039b846200061c565b620005c4565b905082815260208101848484011115620003ba57600080fd5b620003c784828562000690565b509392505050565b600081519050620003e081620007a1565b92915050565b600082601f830112620003f857600080fd5b81516200040a848260208601620002fa565b91505092915050565b600082601f8301126200042557600080fd5b8151620004378482602086016200038a565b91505092915050565b6000815190506200045181620007bb565b92915050565b6000806000806000806000806000806101408b8d0312156200047857600080fd5b6000620004888d828e01620003cf565b9a505060208b015167ffffffffffffffff811115620004a657600080fd5b620004b48d828e0162000413565b99505060408b015167ffffffffffffffff811115620004d257600080fd5b620004e08d828e0162000413565b98505060608b015167ffffffffffffffff811115620004fe57600080fd5b6200050c8d828e01620003e6565b97505060808b015167ffffffffffffffff8111156200052a57600080fd5b620005388d828e0162000413565b96505060a08b015167ffffffffffffffff8111156200055657600080fd5b620005648d828e0162000413565b95505060c0620005778d828e0162000440565b94505060e06200058a8d828e0162000440565b9350506101006200059e8d828e0162000440565b925050610120620005b28d828e01620003cf565b9150509295989b9194979a5092959850565b6000620005d0620005e3565b9050620005de8282620006fc565b919050565b6000604051905090565b600067ffffffffffffffff8211156200060b576200060a62000761565b5b602082029050602081019050919050565b600067ffffffffffffffff8211156200063a576200063962000761565b5b620006458262000790565b9050602081019050919050565b60006200065f8262000666565b9050919050565b600073ffffffffffffffffffffffffffffffffffffffff82169050919050565b6000819050919050565b60005b83811015620006b057808201518184015260208101905062000693565b83811115620006c0576000848401525b50505050565b60006002820490506001821680620006df57607f821691505b60208210811415620006f657620006f562000732565b5b50919050565b620007078262000790565b810181811067ffffffffffffffff8211171562000729576200072862000761565b5b80604052505050565b7f4e487b7100000000000000000000000000000000000000000000000000000000600052602260045260246000fd5b7f4e487b7100000000000000000000000000000000000000000000000000000000600052604160045260246000fd5b6000601f19601f8301169050919050565b620007ac8162000652565b8114620007b857600080fd5b50565b620007c68162000686565b8114620007d257600080fd5b50565b61349e80620007e56000396000f3fe608060405234801561001057600080fd5b50600436106100935760003560e01c80636352211e116100665780636352211e1461010c5780637f6497831461013c578063868ba98714610158578063e2bb3ccf14610176578063fd16412a1461019457610093565b80630ca9e512146100985780631249c58b146100b65780634c1b37a8146100d4578063548db174146100f0575b600080fd5b6100a06101b0565b6040516100ad919061297b565b60405180910390f35b6100be610204565b6040516100cb9190612b58565b60405180910390f35b6100ee60048036038101906100e99190612153565b6106d0565b005b61010a60048036038101906101059190612023565b6109be565b005b61012660048036038101906101219190612153565b610b89565b6040516101339190612823565b60405180910390f35b61015660048036038101906101519190612023565b610c3a565b005b610160610fa2565b60405161016d9190612959565b60405180910390f35b61017e6112bc565b60405161018b9190612b36565b60405180910390f35b6101ae60048036038101906101a99190612064565b61166c565b005b6000600460003373ffffffffffffffffffffffffffffffffffffffff1673ffffffffffffffffffffffffffffffffffffffff16815260200190815260200160002060009054906101000a900460ff16905090565b600060016002811115610240577f4e487b7100000000000000000000000000000000000000000000000000000000600052602160045260246000fd5b600460003373ffffffffffffffffffffffffffffffffffffffff1673ffffffffffffffffffffffffffffffffffffffff16815260200190815260200160002060009054906101000a900460ff1660028111156102c5577f4e487b7100000000000000000000000000000000000000000000000000000000600052602160045260246000fd5b1415610306576040517f08c379a00000000000000000000000000000000000000000000000000000000081526004016102fd90612996565b60405180910390fd5b60006002811115610340577f4e487b7100000000000000000000000000000000000000000000000000000000600052602160045260246000fd5b600460003373ffffffffffffffffffffffffffffffffffffffff1673ffffffffffffffffffffffffffffffffffffffff16815260200190815260200160002060009054906101000a900460ff1660028111156103c5577f4e487b7100000000000000000000000000000000000000000000000000000000600052602160045260246000fd5b1415801561048e5750600280811115610407577f4e487b7100000000000000000000000000000000000000000000000000000000600052602160045260246000fd5b600460003373ffffffffffffffffffffffffffffffffffffffff1673ffffffffffffffffffffffffffffffffffffffff16815260200190815260200160002060009054906101000a900460ff16600281111561048c577f4e487b7100000000000000000000000000000000000000000000000000000000600052602160045260246000fd5b145b6104cd576040517f08c379a00000000000000000000000000000000000000000000000000000000081526004016104c490612ad6565b60405180910390fd5b600115156104d961185e565b15151461051b576040517f08c379a000000000000000000000000000000000000000000000000000000000815260040161051290612b16565b60405180910390fd5b61052560026118ba565b600061053160026118d0565b905061053d33826118de565b6001600460003373ffffffffffffffffffffffffffffffffffffffff1673ffffffffffffffffffffffffffffffffffffffff16815260200190815260200160002060006101000a81548160ff021916908360028111156105c6577f4e487b7100000000000000000000000000000000000000000000000000000000600052602160045260246000fd5b0217905550336005600083815260200190815260200160002060006101000a81548173ffffffffffffffffffffffffffffffffffffffff021916908373ffffffffffffffffffffffffffffffffffffffff1602179055507f90e436b817e16a91c527333e8b299c2940fc349f7d4caca6d9c98920cf36b88e3033600160405161065193929190612875565b60405180910390a17f417b20189b71bcd4e0d7ee9f090cb243800113c9967f1dffb5b2a58cb2fdbf4b3082600660010160009054906101000a900473ffffffffffffffffffffffffffffffffffffffff163360066002016006800160016040516106c197969594939291906128dc565b60405180910390a18091505090565b60006005600083815260200190815260200160002060009054906101000a900473ffffffffffffffffffffffffffffffffffffffff169050600073ffffffffffffffffffffffffffffffffffffffff168173ffffffffffffffffffffffffffffffffffffffff161415610778576040517f08c379a000000000000000000000000000000000000000000000000000000000815260040161076f90612a96565b60405180910390fd5b8073ffffffffffffffffffffffffffffffffffffffff163373ffffffffffffffffffffffffffffffffffffffff1614806108025750600660010160009054906101000a900473ffffffffffffffffffffffffffffffffffffffff1673ffffffffffffffffffffffffffffffffffffffff163373ffffffffffffffffffffffffffffffffffffffff16145b610841576040517f08c379a0000000000000000000000000000000000000000000000000000000008152600401610838906129b6565b60405180910390fd5b61084a82611a42565b6000600460008373ffffffffffffffffffffffffffffffffffffffff1673ffffffffffffffffffffffffffffffffffffffff16815260200190815260200160002060006101000a81548160ff021916908360028111156108d3577f4e487b7100000000000000000000000000000000000000000000000000000000600052602160045260246000fd5b02179055506005600083815260200190815260200160002060006101000a81549073ffffffffffffffffffffffffffffffffffffffff02191690557f90e436b817e16a91c527333e8b299c2940fc349f7d4caca6d9c98920cf36b88e308260006040516109429392919061283e565b60405180910390a17f38ab285612fb23d34c74300f4a48834dccd3ae19d34c383492dbce7998e229063083600660010160009054906101000a900473ffffffffffffffffffffffffffffffffffffffff168460066002016006800160006040516109b297969594939291906128dc565b60405180910390a15050565b600660010160009054906101000a900473ffffffffffffffffffffffffffffffffffffffff1673ffffffffffffffffffffffffffffffffffffffff163373ffffffffffffffffffffffffffffffffffffffff1614610a51576040517f08c379a0000000000000000000000000000000000000000000000000000000008152600401610a4890612ab6565b60405180910390fd5b6006600701544210610a98576040517f08c379a0000000000000000000000000000000000000000000000000000000008152600401610a8f90612a56565b60405180910390fd5b60008151905060005b81811015610b4b5760046000848381518110610ae6577f4e487b7100000000000000000000000000000000000000000000000000000000600052603260045260246000fd5b602002602001015173ffffffffffffffffffffffffffffffffffffffff1673ffffffffffffffffffffffffffffffffffffffff16815260200190815260200160002060006101000a81549060ff02191690558080610b4390612fcb565b915050610aa1565b507f8dcc5cbf3fad6045849f4884bb2e80fc9e15ece7a07ae215b197123807847a0d3083604051610b7d9291906128ac565b60405180910390a15050565b60008060008084815260200190815260200160002060009054906101000a900473ffffffffffffffffffffffffffffffffffffffff169050600073ffffffffffffffffffffffffffffffffffffffff168173ffffffffffffffffffffffffffffffffffffffff161415610c31576040517f08c379a0000000000000000000000000000000000000000000000000000000008152600401610c28906129d6565b60405180910390fd5b80915050919050565b600660010160009054906101000a900473ffffffffffffffffffffffffffffffffffffffff1673ffffffffffffffffffffffffffffffffffffffff163373ffffffffffffffffffffffffffffffffffffffff161480610ce65750600360009054906101000a900473ffffffffffffffffffffffffffffffffffffffff1673ffffffffffffffffffffffffffffffffffffffff163373ffffffffffffffffffffffffffffffffffffffff16145b610d25576040517f08c379a0000000000000000000000000000000000000000000000000000000008152600401610d1c90612ab6565b60405180910390fd5b6006600701544210610d6c576040517f08c379a0000000000000000000000000000000000000000000000000000000008152600401610d6390612a56565b60405180910390fd5b60008151905060005b81811015610f645760006002811115610db7577f4e487b7100000000000000000000000000000000000000000000000000000000600052602160045260246000fd5b60046000858481518110610df4577f4e487b7100000000000000000000000000000000000000000000000000000000600052603260045260246000fd5b602002602001015173ffffffffffffffffffffffffffffffffffffffff1673ffffffffffffffffffffffffffffffffffffffff16815260200190815260200160002060009054906101000a900460ff166002811115610e7c577f4e487b7100000000000000000000000000000000000000000000000000000000600052602160045260246000fd5b1415610f5157600260046000858481518110610ec1577f4e487b7100000000000000000000000000000000000000000000000000000000600052603260045260246000fd5b602002602001015173ffffffffffffffffffffffffffffffffffffffff1673ffffffffffffffffffffffffffffffffffffffff16815260200190815260200160002060006101000a81548160ff02191690836002811115610f4b577f4e487b7100000000000000000000000000000000000000000000000000000000600052602160045260246000fd5b02179055505b8080610f5c90612fcb565b915050610d75565b507fd98606aaa487d6600d0ccc0412dcdf79adc4f37f1deb6a6f9710ee6f458a7fb33083604051610f969291906128ac565b60405180910390a15050565b6060600660010160009054906101000a900473ffffffffffffffffffffffffffffffffffffffff1673ffffffffffffffffffffffffffffffffffffffff163373ffffffffffffffffffffffffffffffffffffffff1614611037576040517f08c379a000000000000000000000000000000000000000000000000000000000815260040161102e90612ab6565b60405180910390fd5b600061104360026118d0565b90506000806000600190505b8381116110e057600073ffffffffffffffffffffffffffffffffffffffff166005600083815260200190815260200160002060009054906101000a900473ffffffffffffffffffffffffffffffffffffffff1673ffffffffffffffffffffffffffffffffffffffff16146110cd576001836110ca9190612e0b565b92505b80806110d890612fcb565b91505061104f565b5060008267ffffffffffffffff811115611123577f4e487b7100000000000000000000000000000000000000000000000000000000600052604160045260246000fd5b60405190808252806020026020018201604052801561115c57816020015b611149611c13565b8152602001906001900390816111415790505b5090506000600190505b8481116112b15760006005600083815260200190815260200160002060009054906101000a900473ffffffffffffffffffffffffffffffffffffffff169050600073ffffffffffffffffffffffffffffffffffffffff168173ffffffffffffffffffffffffffffffffffffffff161461129d576000604051806060016040528060016002811115611220577f4e487b7100000000000000000000000000000000000000000000000000000000600052602160045260246000fd5b81526020018373ffffffffffffffffffffffffffffffffffffffff16815260200184815250905080848681518110611281577f4e487b7100000000000000000000000000000000000000000000000000000000600052603260045260246000fd5b60200260200101819052506001856112999190612e0b565b9450505b5080806112a990612fcb565b915050611166565b508094505050505090565b6112c4611c82565b600660405180610120016040529081600082015481526020016001820160009054906101000a900473ffffffffffffffffffffffffffffffffffffffff1673ffffffffffffffffffffffffffffffffffffffff1673ffffffffffffffffffffffffffffffffffffffff16815260200160028201805461134290612f68565b80601f016020809104026020016040519081016040528092919081815260200182805461136e90612f68565b80156113bb5780601f10611390576101008083540402835291602001916113bb565b820191906000526020600020905b81548152906001019060200180831161139e57829003601f168201915b505050505081526020016003820180546113d490612f68565b80601f016020809104026020016040519081016040528092919081815260200182805461140090612f68565b801561144d5780601f106114225761010080835404028352916020019161144d565b820191906000526020600020905b81548152906001019060200180831161143057829003601f168201915b5050505050815260200160048201805480602002602001604051908101604052809291908181526020016000905b8282101561152757838290600052602060002001805461149a90612f68565b80601f01602080910402602001604051908101604052809291908181526020018280546114c690612f68565b80156115135780601f106114e857610100808354040283529160200191611513565b820191906000526020600020905b8154815290600101906020018083116114f657829003601f168201915b50505050508152602001906001019061147b565b50505050815260200160058201805461153f90612f68565b80601f016020809104026020016040519081016040528092919081815260200182805461156b90612f68565b80156115b85780601f1061158d576101008083540402835291602001916115b8565b820191906000526020600020905b81548152906001019060200180831161159b57829003601f168201915b505050505081526020016006820180546115d190612f68565b80601f01602080910402602001604051908101604052809291908181526020018280546115fd90612f68565b801561164a5780601f1061161f5761010080835404028352916020019161164a565b820191906000526020600020905b81548152906001019060200180831161162d57829003601f168201915b5050505050815260200160078201548152602001600882015481525050905090565b600660010160009054906101000a900473ffffffffffffffffffffffffffffffffffffffff1673ffffffffffffffffffffffffffffffffffffffff163373ffffffffffffffffffffffffffffffffffffffff16146116ff576040517f08c379a00000000000000000000000000000000000000000000000000000000081526004016116f690612ab6565b60405180910390fd5b6006600701544210611746576040517f08c379a000000000000000000000000000000000000000000000000000000000815260040161173d906129f6565b60405180910390fd5b846006600201908051906020019061175f929190611ce4565b508360066003019080519060200190611779929190611ce4565b508260066004019080519060200190611793929190611d6a565b5081600660050190805190602001906117ad929190611ce4565b50806006800190805190602001906117c6929190611ce4565b507f3f0f55fbe0a60f8483892967fb6e01eb9af8389ca233a84da41a81f74325391f60066000015430600660010160009054906101000a900473ffffffffffffffffffffffffffffffffffffffff1660066002016006600301600660040160066005016006800160066007015460066008015460405161184f9a99989796959493929190612b73565b60405180910390a15050505050565b600080600660080154141561188c5760066007015442111561188357600190506118b7565b600090506118b7565b600660070154421180156118a4575060066008015442105b156118b257600190506118b7565b600090505b90565b6001816000016000828254019250508190555050565b600081600001549050919050565b600073ffffffffffffffffffffffffffffffffffffffff168273ffffffffffffffffffffffffffffffffffffffff16141561194e576040517f08c379a000000000000000000000000000000000000000000000000000000000815260040161194590612a76565b60405180910390fd5b61195781611ba8565b15611997576040517f08c379a000000000000000000000000000000000000000000000000000000000815260040161198e90612a16565b60405180910390fd5b60018060008473ffffffffffffffffffffffffffffffffffffffff1673ffffffffffffffffffffffffffffffffffffffff16815260200190815260200160002060008282546119e69190612e0b565b925050819055508160008083815260200190815260200160002060006101000a81548173ffffffffffffffffffffffffffffffffffffffff021916908373ffffffffffffffffffffffffffffffffffffffff1602179055505050565b6000611a4d82610b89565b9050611a5882611ba8565b611a97576040517f08c379a0000000000000000000000000000000000000000000000000000000008152600401611a8e90612af6565b60405180910390fd5b6000600160008373ffffffffffffffffffffffffffffffffffffffff1673ffffffffffffffffffffffffffffffffffffffff1681526020019081526020016000205411611b19576040517f08c379a0000000000000000000000000000000000000000000000000000000008152600401611b1090612a36565b60405180910390fd5b60018060008373ffffffffffffffffffffffffffffffffffffffff1673ffffffffffffffffffffffffffffffffffffffff1681526020019081526020016000206000828254611b689190612e61565b9250508190555060008083815260200190815260200160002060006101000a81549073ffffffffffffffffffffffffffffffffffffffff02191690555050565b60008073ffffffffffffffffffffffffffffffffffffffff1660008084815260200190815260200160002060009054906101000a900473ffffffffffffffffffffffffffffffffffffffff1673ffffffffffffffffffffffffffffffffffffffff1614159050919050565b604051806060016040528060006002811115611c58577f4e487b7100000000000000000000000000000000000000000000000000000000600052602160045260246000fd5b8152602001600073ffffffffffffffffffffffffffffffffffffffff168152602001600081525090565b60405180610120016040528060008152602001600073ffffffffffffffffffffffffffffffffffffffff168152602001606081526020016060815260200160608152602001606081526020016060815260200160008152602001600081525090565b828054611cf090612f68565b90600052602060002090601f016020900481019282611d125760008555611d59565b82601f10611d2b57805160ff1916838001178555611d59565b82800160010185558215611d59579182015b82811115611d58578251825591602001919060010190611d3d565b5b509050611d669190611dca565b5090565b828054828255906000526020600020908101928215611db9579160200282015b82811115611db8578251829080519060200190611da8929190611ce4565b5091602001919060010190611d8a565b5b509050611dc69190611de7565b5090565b5b80821115611de3576000816000905550600101611dcb565b5090565b5b80821115611e075760008181611dfe9190611e0b565b50600101611de8565b5090565b508054611e1790612f68565b6000825580601f10611e295750611e48565b601f016020900490600052602060002090810190611e479190611dca565b5b50565b6000611e5e611e5984612c57565b612c32565b90508083825260208201905082856020860282011115611e7d57600080fd5b60005b85811015611ead5781611e938882611f7b565b845260208401935060208301925050600181019050611e80565b5050509392505050565b6000611eca611ec584612c83565b612c32565b90508083825260208201905082856020860282011115611ee957600080fd5b60005b85811015611f3357813567ffffffffffffffff811115611f0b57600080fd5b808601611f188982611fe4565b85526020850194506020840193505050600181019050611eec565b5050509392505050565b6000611f50611f4b84612caf565b612c32565b905082815260208101848484011115611f6857600080fd5b611f73848285612f26565b509392505050565b600081359050611f8a8161343a565b92915050565b600082601f830112611fa157600080fd5b8135611fb1848260208601611e4b565b91505092915050565b600082601f830112611fcb57600080fd5b8135611fdb848260208601611eb7565b91505092915050565b600082601f830112611ff557600080fd5b8135612005848260208601611f3d565b91505092915050565b60008135905061201d81613451565b92915050565b60006020828403121561203557600080fd5b600082013567ffffffffffffffff81111561204f57600080fd5b61205b84828501611f90565b91505092915050565b600080600080600060a0868803121561207c57600080fd5b600086013567ffffffffffffffff81111561209657600080fd5b6120a288828901611fe4565b955050602086013567ffffffffffffffff8111156120bf57600080fd5b6120cb88828901611fe4565b945050604086013567ffffffffffffffff8111156120e857600080fd5b6120f488828901611fba565b935050606086013567ffffffffffffffff81111561211157600080fd5b61211d88828901611fe4565b925050608086013567ffffffffffffffff81111561213a57600080fd5b61214688828901611fe4565b9150509295509295909350565b60006020828403121561216557600080fd5b60006121738482850161200e565b91505092915050565b600061218883836121d4565b60208301905092915050565b60006121a083836123e2565b905092915050565b60006121b4838361241b565b905092915050565b60006121c883836127c3565b60608301905092915050565b6121dd81612e95565b82525050565b6121ec81612e95565b82525050565b60006121fd82612d3a565b6122078185612da5565b935061221283612ce0565b8060005b8381101561224357815161222a888261217c565b975061223583612d71565b925050600181019050612216565b5085935050505092915050565b600061225b82612d45565b6122658185612db6565b93508360208202850161227785612cf0565b8060005b858110156122b357848403895281516122948582612194565b945061229f83612d7e565b925060208a0199505060018101905061227b565b50829750879550505050505092915050565b60006122d082612d50565b6122da8185612dc7565b9350836020820285016122ec85612d00565b8060005b858110156123275784840389528161230885826121a8565b945061231383612d8b565b925060208a019950506001810190506122f0565b50829750879550505050505092915050565b600061234482612d5b565b61234e8185612dd8565b935061235983612d15565b8060005b8381101561238a57815161237188826121bc565b975061237c83612d98565b92505060018101905061235d565b5085935050505092915050565b6123a081612ea7565b82525050565b6123af81612ef0565b82525050565b6123be81612ef0565b82525050565b6123cd81612f02565b82525050565b6123dc81612f14565b82525050565b60006123ed82612d66565b6123f78185612de9565b9350612407818560208601612f35565b612410816130d0565b840191505092915050565b6000815461242881612f68565b6124328186612de9565b9450600182166000811461244d576001811461245f57612492565b60ff1983168652602086019350612492565b61246885612d25565b60005b8381101561248a5781548189015260018201915060208101905061246b565b808801955050505b50505092915050565b600081546124a881612f68565b6124b28186612dfa565b945060018216600081146124cd57600181146124df57612512565b60ff1983168652602086019350612512565b6124e885612d25565b60005b8381101561250a578154818901526001820191506020810190506124eb565b808801955050505b50505092915050565b6000612528601483612dfa565b9150612533826130e1565b602082019050919050565b600061254b601a83612dfa565b91506125568261310a565b602082019050919050565b600061256e602a83612dfa565b915061257982613133565b604082019050919050565b6000612591603683612dfa565b915061259c82613182565b604082019050919050565b60006125b4601d83612dfa565b91506125bf826131d1565b602082019050919050565b60006125d7601a83612dfa565b91506125e2826131fa565b602082019050919050565b60006125fa603883612dfa565b915061260582613223565b604082019050919050565b600061261d602f83612dfa565b915061262882613272565b604082019050919050565b6000612640602283612dfa565b915061264b826132c1565b604082019050919050565b6000612663602a83612dfa565b915061266e82613310565b604082019050919050565b6000612686601c83612dfa565b91506126918261335f565b602082019050919050565b60006126a9603083612dfa565b91506126b482613388565b604082019050919050565b60006126cc602383612dfa565b91506126d7826133d7565b604082019050919050565b6000610120830160008301516126fb6000860182612805565b50602083015161270e60208601826121d4565b506040830151848203604086015261272682826123e2565b9150506060830151848203606086015261274082826123e2565b9150506080830151848203608086015261275a8282612250565b91505060a083015184820360a086015261277482826123e2565b91505060c083015184820360c086015261278e82826123e2565b91505060e08301516127a360e0860182612805565b506101008301516127b8610100860182612805565b508091505092915050565b6060820160008201516127d960008501826123a6565b5060208201516127ec60208501826121d4565b5060408201516127ff6040850182612805565b50505050565b61280e81612ee6565b82525050565b61281d81612ee6565b82525050565b600060208201905061283860008301846121e3565b92915050565b600060608201905061285360008301866121e3565b61286060208301856121e3565b61286d60408301846123c4565b949350505050565b600060608201905061288a60008301866121e3565b61289760208301856121e3565b6128a460408301846123d3565b949350505050565b60006040820190506128c160008301856121e3565b81810360208301526128d381846121f2565b90509392505050565b600060e0820190506128f1600083018a6121e3565b6128fe6020830189612814565b61290b60408301886121e3565b61291860608301876121e3565b818103608083015261292a818661249b565b905081810360a083015261293e818561249b565b905061294d60c0830184612397565b98975050505050505050565b600060208201905081810360008301526129738184612339565b905092915050565b600060208201905061299060008301846123b5565b92915050565b600060208201905081810360008301526129af8161251b565b9050919050565b600060208201905081810360008301526129cf8161253e565b9050919050565b600060208201905081810360008301526129ef81612561565b9050919050565b60006020820190508181036000830152612a0f81612584565b9050919050565b60006020820190508181036000830152612a2f816125a7565b9050919050565b60006020820190508181036000830152612a4f816125ca565b9050919050565b60006020820190508181036000830152612a6f816125ed565b9050919050565b60006020820190508181036000830152612a8f81612610565b9050919050565b60006020820190508181036000830152612aaf81612633565b9050919050565b60006020820190508181036000830152612acf81612656565b9050919050565b60006020820190508181036000830152612aef81612679565b9050919050565b60006020820190508181036000830152612b0f8161269c565b9050919050565b60006020820190508181036000830152612b2f816126bf565b9050919050565b60006020820190508181036000830152612b5081846126e2565b905092915050565b6000602082019050612b6d6000830184612814565b92915050565b600061014082019050612b89600083018d612814565b612b96602083018c6121e3565b612ba3604083018b6121e3565b8181036060830152612bb5818a61249b565b90508181036080830152612bc9818961249b565b905081810360a0830152612bdd81886122c5565b905081810360c0830152612bf1818761249b565b905081810360e0830152612c05818661249b565b9050612c15610100830185612814565b612c23610120830184612814565b9b9a5050505050505050505050565b6000612c3c612c4d565b9050612c488282612f9a565b919050565b6000604051905090565b600067ffffffffffffffff821115612c7257612c716130a1565b5b602082029050602081019050919050565b600067ffffffffffffffff821115612c9e57612c9d6130a1565b5b602082029050602081019050919050565b600067ffffffffffffffff821115612cca57612cc96130a1565b5b612cd3826130d0565b9050602081019050919050565b6000819050602082019050919050565b6000819050602082019050919050565b60008190508160005260206000209050919050565b6000819050602082019050919050565b60008190508160005260206000209050919050565b600081519050919050565b600081519050919050565b600081549050919050565b600081519050919050565b600081519050919050565b6000602082019050919050565b6000602082019050919050565b6000600182019050919050565b6000602082019050919050565b600082825260208201905092915050565b600082825260208201905092915050565b600082825260208201905092915050565b600082825260208201905092915050565b600082825260208201905092915050565b600082825260208201905092915050565b6000612e1682612ee6565b9150612e2183612ee6565b9250827fffffffffffffffffffffffffffffffffffffffffffffffffffffffffffffffff03821115612e5657612e55613014565b5b828201905092915050565b6000612e6c82612ee6565b9150612e7783612ee6565b925082821015612e8a57612e89613014565b5b828203905092915050565b6000612ea082612ec6565b9050919050565b60008115159050919050565b6000819050612ec182613426565b919050565b600073ffffffffffffffffffffffffffffffffffffffff82169050919050565b6000819050919050565b6000612efb82612eb3565b9050919050565b6000612f0d82612ee6565b9050919050565b6000612f1f82612ee6565b9050919050565b82818337600083830152505050565b60005b83811015612f53578082015181840152602081019050612f38565b83811115612f62576000848401525b50505050565b60006002820490506001821680612f8057607f821691505b60208210811415612f9457612f93613072565b5b50919050565b612fa3826130d0565b810181811067ffffffffffffffff82111715612fc257612fc16130a1565b5b80604052505050565b6000612fd682612ee6565b91507fffffffffffffffffffffffffffffffffffffffffffffffffffffffffffffffff82141561300957613008613014565b5b600182019050919050565b7f4e487b7100000000000000000000000000000000000000000000000000000000600052601160045260246000fd5b7f4e487b7100000000000000000000000000000000000000000000000000000000600052602160045260246000fd5b7f4e487b7100000000000000000000000000000000000000000000000000000000600052602260045260246000fd5b7f4e487b7100000000000000000000000000000000000000000000000000000000600052604160045260246000fd5b6000601f19601f8301169050919050565b7f546f6b656e20616c7265616479206d696e746564000000000000000000000000600082015250565b7f6f6e6c79206f776e65722f6973737565722063616e206275726e000000000000600082015250565b7f455243313233383a206f776e657220717565727920666f72206e6f6e6578697360008201527f74656e7420746f6b656e00000000000000000000000000000000000000000000602082015250565b7f44657461696c732063616e6e6f74206265206d6f64696669656420616674657260008201527f20746865206576656e7420686173207374617274656400000000000000000000602082015250565b7f455243313233383a20746f6b656e20616c7265616479206d696e746564000000600082015250565b7f455243313233383a206e6f20746f6b656e7320746f206275726e000000000000600082015250565b7f57686974656c6973742063616e6e6f74206265206d6f6469666965642061667460008201527f657220746865206576656e742068617320737461727465640000000000000000602082015250565b7f455243313233383a206d696e7420746f20746865207a65726f2061646472657360008201527f73206e6f74207065726d69747465640000000000000000000000000000000000602082015250565b7f4275726e206661696c65643a20546f6b656e20646f6573206e6f74206578697360008201527f7421000000000000000000000000000000000000000000000000000000000000602082015250565b7f4f6e6c7920636f6e7472616374206f776e65722063616e2063616c6c2074686960008201527f732066756e6374696f6e00000000000000000000000000000000000000000000602082015250565b7f4e6f7420656c696769626c6520746f20636c61696d20746f6b656e2100000000600082015250565b7f455243313233383a2063616e6e6f74206275726e206120746f6b656e2074686160008201527f7420646f6573206e6f7420657869737400000000000000000000000000000000602082015250565b7f4d696e74696e6720706572696f6420657870697265642f79657420746f20626560008201527f67696e0000000000000000000000000000000000000000000000000000000000602082015250565b6003811061343757613436613043565b5b50565b61344381612e95565b811461344e57600080fd5b50565b61345a81612ee6565b811461346557600080fd5b5056fea2646970667358221220a0965dc6aedb140decf3ff1794b224bb5bb09805668370938dd13c6a8a74d95264736f6c63430008040033a2646970667358221220db5f67c8bc97be8e14d0b32be8300f79e0655b0cca03a65c68d302bda976f36964736f6c63430008040033",
  "linkReferences": {},
  "deployedLinkReferences": {}
}