{
  "_format": "hh-sol-artifact-1",
  "contractName": "ERC1238",
  "sourceName": "contracts/ERC1238.sol",
  "abi": [
    {
      "inputs": [
        {
          "internalType": "uint256",
          "name": "tokenId",
          "type": "uint256"
        }
      ],
      "name": "ownerOf",
      "outputs": [
        {
          "internalType": "address",
          "name": "",
          "type": "address"
        }
      ],
      "stateMutability": "view",
      "type": "function"
    }
  ],
  "bytecode": "0x608060405234801561001057600080fd5b506102a5806100206000396000f3fe608060405234801561001057600080fd5b506004361061002b5760003560e01c80636352211e14610030575b600080fd5b61004a60048036038101906100459190610126565b610060565b6040516100579190610181565b60405180910390f35b60008060008084815260200190815260200160002060009054906101000a900473ffffffffffffffffffffffffffffffffffffffff169050600073ffffffffffffffffffffffffffffffffffffffff168173ffffffffffffffffffffffffffffffffffffffff161415610108576040517f08c379a00000000000000000000000000000000000000000000000000000000081526004016100ff9061019c565b60405180910390fd5b80915050919050565b60008135905061012081610258565b92915050565b60006020828403121561013857600080fd5b600061014684828501610111565b91505092915050565b610158816101cd565b82525050565b600061016b602a836101bc565b915061017682610209565b604082019050919050565b6000602082019050610196600083018461014f565b92915050565b600060208201905081810360008301526101b58161015e565b9050919050565b600082825260208201905092915050565b60006101d8826101df565b9050919050565b600073ffffffffffffffffffffffffffffffffffffffff82169050919050565b6000819050919050565b7f455243313233383a206f776e657220717565727920666f72206e6f6e6578697360008201527f74656e7420746f6b656e00000000000000000000000000000000000000000000602082015250565b610261816101ff565b811461026c57600080fd5b5056fea2646970667358221220218e957da82c3d766e23036417d824e9720e9b0da82f40ae71eef63ea0fc615c64736f6c63430008040033",
  "linkReferences": {},
  "deployedLinkReferences": {}
}